{"abi":[{"type":"fallback","stateMutability":"payable"},{"type":"receive","stateMutability":"payable"},{"type":"function","name":"accountId","inputs":[],"outputs":[{"name":"accountImplementationId","type":"string","internalType":"string"}],"stateMutability":"pure"},{"type":"function","name":"domainSeparator","inputs":[],"outputs":[{"name":"","type":"bytes32","internalType":"bytes32"}],"stateMutability":"view"},{"type":"function","name":"entryPoint","inputs":[],"outputs":[{"name":"","type":"address","internalType":"address"}],"stateMutability":"view"},{"type":"function","name":"execute","inputs":[{"name":"mode","type":"bytes32","internalType":"ModeCode"},{"name":"executionCalldata","type":"bytes","internalType":"bytes"}],"outputs":[],"stateMutability":"nonpayable"},{"type":"function","name":"executeFromExecutor","inputs":[{"name":"mode","type":"bytes32","internalType":"ModeCode"},{"name":"executionCalldata","type":"bytes","internalType":"bytes"}],"outputs":[{"name":"returnDatas","type":"bytes[]","internalType":"bytes[]"}],"stateMutability":"nonpayable"},{"type":"function","name":"getActiveHook","inputs":[],"outputs":[{"name":"hook","type":"address","internalType":"address"}],"stateMutability":"view"},{"type":"function","name":"getActiveHook","inputs":[{"name":"selector","type":"bytes4","internalType":"bytes4"}],"outputs":[{"name":"hook","type":"address","internalType":"address"}],"stateMutability":"view"},{"type":"function","name":"getExecutorsPaginated","inputs":[{"name":"cursor","type":"address","internalType":"address"},{"name":"pageSize","type":"uint256","internalType":"uint256"}],"outputs":[{"name":"array","type":"address[]","internalType":"address[]"},{"name":"next","type":"address","internalType":"address"}],"stateMutability":"view"},{"type":"function","name":"getNonce","inputs":[{"name":"safe","type":"address","internalType":"address"},{"name":"validator","type":"address","internalType":"address"}],"outputs":[{"name":"nonce","type":"uint256","internalType":"uint256"}],"stateMutability":"view"},{"type":"function","name":"getSafeOp","inputs":[{"name":"userOp","type":"tuple","internalType":"struct PackedUserOperation","components":[{"name":"sender","type":"address","internalType":"address"},{"name":"nonce","type":"uint256","internalType":"uint256"},{"name":"initCode","type":"bytes","internalType":"bytes"},{"name":"callData","type":"bytes","internalType":"bytes"},{"name":"accountGasLimits","type":"bytes32","internalType":"bytes32"},{"name":"preVerificationGas","type":"uint256","internalType":"uint256"},{"name":"gasFees","type":"bytes32","internalType":"bytes32"},{"name":"paymasterAndData","type":"bytes","internalType":"bytes"},{"name":"signature","type":"bytes","internalType":"bytes"}]},{"name":"entryPoint","type":"address","internalType":"address"}],"outputs":[{"name":"operationData","type":"bytes","internalType":"bytes"},{"name":"validAfter","type":"uint48","internalType":"uint48"},{"name":"validUntil","type":"uint48","internalType":"uint48"},{"name":"signatures","type":"bytes","internalType":"bytes"}],"stateMutability":"view"},{"type":"function","name":"getValidatorsPaginated","inputs":[{"name":"cursor","type":"address","internalType":"address"},{"name":"pageSize","type":"uint256","internalType":"uint256"}],"outputs":[{"name":"array","type":"address[]","internalType":"address[]"},{"name":"next","type":"address","internalType":"address"}],"stateMutability":"view"},{"type":"function","name":"initializeAccount","inputs":[{"name":"validators","type":"tuple[]","internalType":"struct ModuleInit[]","components":[{"name":"module","type":"address","internalType":"address"},{"name":"initData","type":"bytes","internalType":"bytes"}]},{"name":"executors","type":"tuple[]","internalType":"struct ModuleInit[]","components":[{"name":"module","type":"address","internalType":"address"},{"name":"initData","type":"bytes","internalType":"bytes"}]},{"name":"fallbacks","type":"tuple[]","internalType":"struct ModuleInit[]","components":[{"name":"module","type":"address","internalType":"address"},{"name":"initData","type":"bytes","internalType":"bytes"}]},{"name":"hooks","type":"tuple[]","internalType":"struct ModuleInit[]","components":[{"name":"module","type":"address","internalType":"address"},{"name":"initData","type":"bytes","internalType":"bytes"}]},{"name":"registryInit","type":"tuple","internalType":"struct RegistryInit","components":[{"name":"registry","type":"address","internalType":"contract IERC7484"},{"name":"attesters","type":"address[]","internalType":"address[]"},{"name":"threshold","type":"uint8","internalType":"uint8"}]}],"outputs":[],"stateMutability":"nonpayable"},{"type":"function","name":"initializeAccountWithValidators","inputs":[{"name":"validators","type":"tuple[]","internalType":"struct ModuleInit[]","components":[{"name":"module","type":"address","internalType":"address"},{"name":"initData","type":"bytes","internalType":"bytes"}]}],"outputs":[],"stateMutability":"nonpayable"},{"type":"function","name":"installModule","inputs":[{"name":"moduleType","type":"uint256","internalType":"uint256"},{"name":"module","type":"address","internalType":"address"},{"name":"initData","type":"bytes","internalType":"bytes"}],"outputs":[],"stateMutability":"nonpayable"},{"type":"function","name":"isModuleInstalled","inputs":[{"name":"moduleType","type":"uint256","internalType":"uint256"},{"name":"module","type":"address","internalType":"address"},{"name":"additionalContext","type":"bytes","internalType":"bytes"}],"outputs":[{"name":"","type":"bool","internalType":"bool"}],"stateMutability":"view"},{"type":"function","name":"isValidSignature","inputs":[{"name":"hash","type":"bytes32","internalType":"bytes32"},{"name":"data","type":"bytes","internalType":"bytes"}],"outputs":[{"name":"magicValue","type":"bytes4","internalType":"bytes4"}],"stateMutability":"view"},{"type":"function","name":"setRegistry","inputs":[{"name":"registry","type":"address","internalType":"contract IERC7484"},{"name":"attesters","type":"address[]","internalType":"address[]"},{"name":"threshold","type":"uint8","internalType":"uint8"}],"outputs":[],"stateMutability":"nonpayable"},{"type":"function","name":"supportsExecutionMode","inputs":[{"name":"encodedMode","type":"bytes32","internalType":"ModeCode"}],"outputs":[{"name":"supported","type":"bool","internalType":"bool"}],"stateMutability":"pure"},{"type":"function","name":"supportsModule","inputs":[{"name":"moduleTypeId","type":"uint256","internalType":"uint256"}],"outputs":[{"name":"","type":"bool","internalType":"bool"}],"stateMutability":"pure"},{"type":"function","name":"uninstallModule","inputs":[{"name":"moduleType","type":"uint256","internalType":"uint256"},{"name":"module","type":"address","internalType":"address"},{"name":"deInitData","type":"bytes","internalType":"bytes"}],"outputs":[],"stateMutability":"nonpayable"},{"type":"function","name":"validateUserOp","inputs":[{"name":"userOp","type":"tuple","internalType":"struct PackedUserOperation","components":[{"name":"sender","type":"address","internalType":"address"},{"name":"nonce","type":"uint256","internalType":"uint256"},{"name":"initCode","type":"bytes","internalType":"bytes"},{"name":"callData","type":"bytes","internalType":"bytes"},{"name":"accountGasLimits","type":"bytes32","internalType":"bytes32"},{"name":"preVerificationGas","type":"uint256","internalType":"uint256"},{"name":"gasFees","type":"bytes32","internalType":"bytes32"},{"name":"paymasterAndData","type":"bytes","internalType":"bytes"},{"name":"signature","type":"bytes","internalType":"bytes"}]},{"name":"userOpHash","type":"bytes32","internalType":"bytes32"},{"name":"missingAccountFunds","type":"uint256","internalType":"uint256"}],"outputs":[{"name":"validSignature","type":"uint256","internalType":"uint256"}],"stateMutability":"nonpayable"},{"type":"event","name":"ERC7484RegistryConfigured","inputs":[{"name":"smartAccount","type":"address","indexed":true,"internalType":"address"},{"name":"registry","type":"address","indexed":true,"internalType":"contract IERC7484"}],"anonymous":false},{"type":"event","name":"ModuleInstalled","inputs":[{"name":"moduleTypeId","type":"uint256","indexed":false,"internalType":"uint256"},{"name":"module","type":"address","indexed":false,"internalType":"address"}],"anonymous":false},{"type":"event","name":"ModuleUninstalled","inputs":[{"name":"moduleTypeId","type":"uint256","indexed":false,"internalType":"uint256"},{"name":"module","type":"address","indexed":false,"internalType":"address"}],"anonymous":false},{"type":"event","name":"Safe7579Initialized","inputs":[{"name":"safe","type":"address","indexed":true,"internalType":"address"}],"anonymous":false},{"type":"event","name":"TryExecutionFailed","inputs":[{"name":"safe","type":"address","indexed":false,"internalType":"contract ISafe"},{"name":"numberInBatch","type":"uint256","indexed":false,"internalType":"uint256"}],"anonymous":false},{"type":"event","name":"TryExecutionsFailed","inputs":[{"name":"safe","type":"address","indexed":false,"internalType":"contract ISafe"},{"name":"success","type":"bool[]","indexed":false,"internalType":"bool[]"}],"anonymous":false},{"type":"error","name":"AccountAccessUnauthorized","inputs":[]},{"type":"error","name":"ExecutionFailed","inputs":[]},{"type":"error","name":"FallbackInstalled","inputs":[{"name":"msgSig","type":"bytes4","internalType":"bytes4"}]},{"type":"error","name":"HookAlreadyInstalled","inputs":[{"name":"currentHook","type":"address","internalType":"address"}]},{"type":"error","name":"InvalidCallType","inputs":[{"name":"callType","type":"bytes1","internalType":"CallType"}]},{"type":"error","name":"InvalidFallbackHandler","inputs":[{"name":"msgSig","type":"bytes4","internalType":"bytes4"}]},{"type":"error","name":"InvalidHookType","inputs":[]},{"type":"error","name":"InvalidInitData","inputs":[{"name":"safe","type":"address","internalType":"address"}]},{"type":"error","name":"InvalidInput","inputs":[]},{"type":"error","name":"InvalidModule","inputs":[{"name":"module","type":"address","internalType":"address"}]},{"type":"error","name":"InvalidModuleType","inputs":[{"name":"module","type":"address","internalType":"address"},{"name":"moduleType","type":"uint256","internalType":"uint256"}]},{"type":"error","name":"LinkedList_AlreadyInitialized","inputs":[]},{"type":"error","name":"LinkedList_EntryAlreadyInList","inputs":[{"name":"entry","type":"address","internalType":"address"}]},{"type":"error","name":"LinkedList_InvalidEntry","inputs":[{"name":"entry","type":"address","internalType":"address"}]},{"type":"error","name":"LinkedList_InvalidPage","inputs":[]},{"type":"error","name":"NoFallbackHandler","inputs":[{"name":"msgSig","type":"bytes4","internalType":"bytes4"}]},{"type":"error","name":"UnsupportedCallType","inputs":[{"name":"callType","type":"bytes1","internalType":"CallType"}]},{"type":"error","name":"UnsupportedExecType","inputs":[{"name":"execType","type":"bytes1","internalType":"ExecType"}]},{"type":"error","name":"UnsupportedModuleType","inputs":[{"name":"moduleTypeId","type":"uint256","internalType":"uint256"}]}],"bytecode":{"object":"0x60a0604052348015600f57600080fd5b50604051601a906046565b604051809103906000f0801580156035573d6000803e3d6000fd5b506001600160a01b03166080526053565b6109c980614e6983390190565b608051614dae6100bb600039600081816111f2015281816113ea0152818161154b01528181611d94015281816121e5015281816122bf01528181612356015281816123ed0152818161354901528181613601015281816139290152613a490152614dae6000f3fe60806040526004361061012e5760003560e01c8063a71763a8116100ab578063d828435d1161006f578063d828435d146104a2578063e9ae5c53146104c2578063ea5f61d0146104e2578063eab77e1714610502578063f2dc691d14610522578063f698da251461054257610135565b8063a71763a8146103c7578063b0d691fe146103e7578063b875d5d81461040a578063d03c791414610455578063d691c9641461047557610135565b806355d559f4116100f257806355d559f4146102dd5780635faac46b1461030d57806379aad60e1461033b5780639517e29f1461035b5780639cfd7cff1461037b57610135565b80630a664dba146101e0578063112d3a7d146102245780631626ba7e1461025457806319822f7c1461028d578063540fb4f9146102bb57610135565b3661013557005b600036606060003560e01c63bc197c81811463f23a6e6182141763150b7a028214171561016657806020526020603cf35b50336000818152600460209081526040808320546001600160e01b031984351680855260058452828520958552949092528220546001600160a01b0391821692911690806101b48484610557565b915091506101c28888610615565b95506101d084848484610728565b5050505050915050805190602001f35b3480156101ec57600080fd5b50336000908152600460205260409020546001600160a01b03165b6040516001600160a01b0390911681526020015b60405180910390f35b34801561023057600080fd5b5061024461023f366004613d18565b6107ab565b604051901515815260200161021b565b34801561026057600080fd5b5061027461026f366004613d73565b610820565b6040516001600160e01b0319909116815260200161021b565b34801561029957600080fd5b506102ad6102a8366004613dd7565b610b96565b60405190815260200161021b565b3480156102c757600080fd5b506102db6102d6366004613e7a565b610caa565b005b3480156102e957600080fd5b506102fd6102f8366004613f60565b610d5a565b60405161021b9493929190614001565b34801561031957600080fd5b5061032d610328366004614047565b610fb7565b60405161021b929190614073565b34801561034757600080fd5b506102db6103563660046140d6565b610fd3565b34801561036757600080fd5b506102db610376366004613d18565b611097565b34801561038757600080fd5b50604080518082018252601a81527f7268696e6573746f6e652e73616665373537392e76312e302e300000000000006020820152905161021b9190614117565b3480156103d357600080fd5b506102db6103e2366004613d18565b611262565b3480156103f357600080fd5b506f71727de22e5e9d8baf0edac6f37da032610207565b34801561041657600080fd5b50610207610425366004614140565b6001600160e01b03191660009081526005602090815260408083203384529091529020546001600160a01b031690565b34801561046157600080fd5b5061024461047036600461415d565b611589565b34801561048157600080fd5b50610495610490366004613d73565b611631565b60405161021b9190614176565b3480156104ae57600080fd5b506102ad6104bd3660046141da565b61171a565b3480156104ce57600080fd5b506102db6104dd366004613d73565b6117ba565b3480156104ee57600080fd5b5061032d6104fd366004614047565b611b57565b34801561050e57600080fd5b506102db61051d366004614219565b611b68565b34801561052e57600080fd5b5061024461053d36600461415d565b611bd7565b34801561054e57600080fd5b506102ad611c26565b6060806001600160a01b038416156105d7576105be33856000610578611c7f565b3460003660405160240161058f94939291906142a8565b60408051601f198184030181529190526020810180516001600160e01b031663d68f602560e01b179052611c8b565b9150818060200190518101906105d49190614391565b91505b6001600160a01b0383161561060e576105f533846000610578611c7f565b90508080602001905181019061060b9190614391565b90505b9250929050565b600080356001600160e01b031916815260036020908152604080832033845290915290208054606091906001600160a01b03811690600160a01b900460f81b8161068557604051632464e76d60e11b81526001600160e01b03196000351660048201526024015b60405180910390fd5b61069381607f60f91b611d34565b156106d7576106cd338388886106a7611c7f565b6040516020016106b9939291906143c5565b604051602081830303815290604052611d46565b9350505050610722565b6106e2816000611d34565b1561071e576106cd3383600089896106f8611c7f565b60405160200161070a939291906143c5565b604051602081830303815290604052611c8b565b5050505b92915050565b6001600160a01b0384161561077e5761077e338560008560405160240161074f9190614117565b60408051601f198184030181529190526020810180516001600160e01b0316630b9dfbed60e11b179052611e1b565b6001600160a01b038316156107a5576107a5338460008460405160240161074f9190614117565b50505050565b6000600185036107dd57336001600160a01b038516036107cd57506001610818565b6107d684611eba565b9050610818565b600285036107ee576107d684611ec8565b60038503610801576107d6848484611ed6565b60048503610814576107d6848484611f22565b5060005b949350505050565b6000338282036109ba5760006108f1826001600160a01b031663f698da256040518163ffffffff1660e01b8152600401602060405180830381865afa15801561086d573d6000803e3d6000fd5b505050506040513d601f19601f8201168201806040525081019061089191906143eb565b60408051602081018a90527f60b3cbf8b4a223d68d641b3b6ddf9a298e7f33710cf3d3a9d1146b5a6150fbca91015b60408051601f1981840301815282825280516020918201209083015201604051602081830303815290604052611f5d565b8051602090910120604051635ae6bd3760e01b8152600481018290529091506001600160a01b03831690635ae6bd3790602401602060405180830381865afa158015610941573d6000803e3d6000fd5b505050506040513d601f19601f8201168201806040525081019061096591906143eb565b6000036109a85760405162461bcd60e51b815260206004820152601160248201527012185cda081b9bdd08185c1c1c9bdd9959607a1b604482015260640161067c565b50630b135d3f60e11b9150610b8f9050565b60006109c96014828688614404565b6109d29161442e565b60601c90508015806109ea57506109e881611eba565b155b15610b14576000610a89836001600160a01b031663f698da256040518163ffffffff1660e01b8152600401602060405180830381865afa158015610a32573d6000803e3d6000fd5b505050506040513d601f19601f82011682018060405250810190610a5691906143eb565b60408051602081018b90527f60b3cbf8b4a223d68d641b3b6ddf9a298e7f33710cf3d3a9d1146b5a6150fbca91016108c0565b805160208201209091506001600160a01b03841663934f3a118284610ab18a6014818e614404565b6040518563ffffffff1660e01b8152600401610ad09493929190614463565b60006040518083038186803b158015610ae857600080fd5b505afa158015610afc573d6000803e3d6000fd5b50630b135d3f60e11b9750610b8f9650505050505050565b6000610b733383610b23611c7f565b8a610b318a6014818e614404565b604051602401610b4494939291906142a8565b60408051601f198184030181529190526020810180516001600160e01b0316637aa8f17760e11b179052611d46565b905080806020019051810190610b89919061448f565b93505050505b9392505050565b60006f71727de22e5e9d8baf0edac6f37da032610bb1611c7f565b6001600160a01b031614610bd857604051635629665f60e11b815260040160405180910390fd5b6020840135606081901c90811580610bf65750610bf482611eba565b155b15610c0b57610c0486611fd7565b9250610c70565b6000610c56338460008a8a604051602401610c279291906144f1565b60408051601f198184030181529190526020810180516001600160e01b0316639700320360e01b179052611c8b565b905080806020019051810190610c6c91906143eb565b9350505b8315610ca157610ca1336f71727de22e5e9d8baf0edac6f37da0328660405180602001604052806000815250611e1b565b50509392505050565b6f71727de22e5e9d8baf0edac6f37da032610cc3611c7f565b6001600160a01b03161480610cf05750610cdb611c7f565b6001600160a01b0316336001600160a01b0316145b610d0d57604051635629665f60e11b815260040160405180910390fd5b610d3f610d1d60208301836145f0565b610d2a602084018461460d565b610d3a6060860160408701614656565b612086565b610d4f898989898989898961213d565b505050505050505050565b6060600080823682610d70610100890189614671565b9092509050610d83600660008385614404565b610d8c916146b7565b60d01c9450610d9f600c60068385614404565b610da8916146b7565b60d01c9350610dba81600c8185614404565b8080601f0160208091040260200160405190810160405280939291908181526020018383808284376000920182905250604080516101c081019091527fc03dfc11d8b10bf9cf703d558958c8c42777f785d998c62060d85a4f0ef6ea7f815294975095509293505060208084019250610e3691508a018a6145f0565b6001600160a01b0316815260200188602001358152602001888060400190610e5e9190614671565b604051610e6c9291906146e5565b6040519081900390208152602001610e8760608a018a614671565b604051610e959291906146e5565b60405180910390208152602001610eab8961245c565b6001600160801b03168152602001610ec28961246c565b6001600160801b031681526020018860a001358152602001610ee389612481565b6001600160801b03168152602001610efa89612490565b6001600160801b03168152602001610f1560e08a018a614671565b604051610f239291906146e5565b6040805191829003909120825265ffffffffffff80881660208401528616908201526001600160a01b0388166060909101526101c08120909150601960f81b600160f81b610f6f611c26565b6040516001600160f81b031993841660208201529290911660218301526022820152604281018290526062016040516020818303038152906040529550505092959194509250565b60606000610fc860013386866124a5565b915091509250929050565b6f71727de22e5e9d8baf0edac6f37da032610fec611c7f565b6001600160a01b031614806110195750611004611c7f565b6001600160a01b0316336001600160a01b0316145b61103657604051635629665f60e11b815260040160405180910390fd5b611041600133612669565b8060005b818110156107a55736848483818110611060576110606146f5565b9050602002810190611072919061470b565b905061108e3361108560208401846145f0565b600191906126e4565b50600101611045565b336000908152600460209081526040808320547fd00bcad91b775f25eb0aee15808d12dfdaa6dc5a7d6b754e26f9c205d2a3b8df909252822054639517e29f60e01b926001600160a01b039283169290911690806110f58484610557565b915091506111106f71727de22e5e9d8baf0edac6f37da03290565b6001600160a01b0316611121611c7f565b6001600160a01b0316148061114e5750611139611c7f565b6001600160a01b0316336001600160a01b0316145b61116b57604051635629665f60e11b815260040160405180910390fd5b606060018a03611187576111808989896127d9565b90506111ec565b60028a0361119a57611180898989612835565b60038a036111ad57611180898989612850565b60048a036111c0576111808989896129cf565b896111d057611180898989612b6f565b60405163041c38b360e41b8152600481018b905260240161067c565b611255337f00000000000000000000000000000000000000000000000000000000000000008c8c856040516024016112269392919061472b565b60408051601f198184030181529190526020810180516001600160e01b0316639517e29f60e01b179052612d20565b50610d4f84848484610728565b336000908152600460209081526040808320547fc45a7acaba78a7b4c4432b604d301355b314c0a7811768a1ee2563c9d34ca4e09092529091205484916314e2ec7560e31b916001600160a01b039182169190811690841682148015906112db5750806001600160a01b0316846001600160a01b031614155b15611461576000806112ed8484610557565b915091506113086f71727de22e5e9d8baf0edac6f37da03290565b6001600160a01b0316611319611c7f565b6001600160a01b031614806113465750611331611c7f565b6001600160a01b0316336001600160a01b0316145b61136357604051635629665f60e11b815260040160405180910390fd5b606060018b0361137f576113788a8a8a612db9565b90506113e4565b60028b03611392576113788a8a8a612de2565b60038b036113a5576113788a8a8a612e03565b60048b036113b8576113788a8a8a612e4f565b8a6113c8576113788a8a8a612f07565b60405163041c38b360e41b8152600481018c905260240161067c565b61144d337f00000000000000000000000000000000000000000000000000000000000000008d8d8560405160240161141e9392919061472b565b60408051601f198184030181529190526020810180516001600160e01b0316637827252560e01b17905261305a565b5061145a84848484610728565b505061157f565b6f71727de22e5e9d8baf0edac6f37da03261147a611c7f565b6001600160a01b031614806114a75750611492611c7f565b6001600160a01b0316336001600160a01b0316145b6114c457604051635629665f60e11b815260040160405180910390fd5b6060600189036114e0576114d9888888612db9565b9050611545565b600289036114f3576114d9888888612de2565b60038903611506576114d9888888612e03565b60048903611519576114d9888888612e4f565b88611529576114d9888888612f07565b60405163041c38b360e41b8152600481018a905260240161067c565b610d4f337f00000000000000000000000000000000000000000000000000000000000000008b8b8560405160240161141e9392919061472b565b5050505050505050565b600081600881901b61159f82600160f81b611d34565b156115ad57600192506115f0565b6115b8826000611d34565b156115c657600192506115f0565b6115d8826001600160f81b0319611d34565b156115e657600192506115f0565b5060009392505050565b8280156116035750611603816000611d34565b1561160f575050919050565b828015611625575061162581600160f81b611d34565b156115e6575050919050565b606061164361163e611c7f565b611ec8565b6116745761164f611c7f565b604051635c93ff2f60e11b81526001600160a01b03909116600482015260240161067c565b336000908152600460209081526040808320547f4162c930ade27880570b0eb31efbc8a626b97e81a40ced27163509dfe16398829092528220546335a4725960e21b926001600160a01b039283169290911690806116d28484610557565b915091506116de611c7f565b60026116ea8282613110565b8a600881901b6116fc81838e8e61319b565b99505050505061170e84848484610728565b50505050509392505050565b6000602082901b640100000000600160c01b03166f71727de22e5e9d8baf0edac6f37da032604051631aab3f0d60e11b81526001600160a01b0386811660048301526001600160c01b038416602483015291909116906335567e1a90604401602060405180830381865afa158015611796573d6000803e3d6000fd5b505050506040513d601f19601f8201168201806040525081019061081891906143eb565b336000908152600460209081526040808320547fccfe1b2bef70acd8e661aeb5430e147f4c75cb320972acba718a28da428e1a3090925282205463e9ae5c5360e01b926001600160a01b039283169290911690806118188484610557565b915091506118336f71727de22e5e9d8baf0edac6f37da03290565b6001600160a01b0316611844611c7f565b6001600160a01b03161480611871575061185c611c7f565b6001600160a01b0316336001600160a01b0316145b61188e57604051635629665f60e11b815260040160405180910390fd5b87600881901b336118a0826000611d34565b156119f9576118b383600160f81b611d34565b156118d45789358a016020810190356118cd838383613543565b5050611b48565b6118df836000611d34565b15611947576000803660006118f48e8e6135aa565b935093509350935061193e85858585858080601f016020809104026020016040519081016040528093929190818152602001838380828437600092019190915250611e1b92505050565b50505050611b48565b611959836001600160f81b0319611d34565b156119de57600061196d6014828c8e614404565b6119769161442e565b60601c90503660008c8c601490809261199193929190614404565b915091506119d6848484848080601f016020809104026020016040519081016040528093929190818152602001838380828437600092019190915250612d2092505050565b505050611b48565b82604051632e5bf3f960e21b815260040161067c919061475e565b611a0782600160f81b611d34565b15611b2d57611a1a83600160f81b611d34565b15611a345789358a016020810190356118cd8383836135fb565b611a3f836000611d34565b15611a9e57600080366000611a548e8e6135aa565b935093509350935061193e85858585858080601f01602080910402602001604051908101604052809392919081815260200183838082843760009201919091525061366292505050565b611ab0836001600160f81b0319611d34565b156119de576000611ac46014828c8e614404565b611acd9161442e565b60601c90503660008c8c6014908092611ae893929190614404565b915091506119d6848484848080601f01602080910402602001604051908101604052809392919081815260200183838082843760009201919091525061305a92505050565b816040516308c3ee0360e11b815260040161067c919061475e565b50505061157f84848484610728565b60606000610fc860023386866124a5565b6f71727de22e5e9d8baf0edac6f37da032611b81611c7f565b6001600160a01b03161480611bae5750611b99611c7f565b6001600160a01b0316336001600160a01b0316145b611bcb57604051635629665f60e11b815260040160405180910390fd5b6107a584848484612086565b600060018203611be957506001919050565b60028203611bf957506001919050565b60038203611c0957506001919050565b60048203611c1957506001919050565b506000919050565b919050565b604080517f47e79534a245952e8b16893a336b85a3d9ea9fa8c573f3d803afb92a794692186020820152469181019190915230606082015260009060800160405160208183030381529060405280519060200120905090565b60131936013560601c90565b60606000856001600160a01b0316635229073f86868660006040518563ffffffff1660e01b8152600401611cc294939291906147ab565b6000604051808303816000875af1158015611ce1573d6000803e3d6000fd5b505050506040513d6000823e601f3d908101601f19168201604052611d0991908101906147f1565b9250905080611d2b57604051632b3f6d1160e21b815260040160405180910390fd5b50949350505050565b6001600160f81b031990811691161490565b606060008383604051602401611d5d92919061483e565b60408051601f198184030181529181526020820180516001600160e01b0316636a22165760e01b17905251909150600090611dbe907f000000000000000000000000000000000000000000000000000000000000000090849060240161483e565b60408051601f19818403018152919052602080820180516001600160e01b031663b4faba0960e01b17815282519293509091600091895afa5060203d036040519350808401604052806020853e50600051610ca157825160208401fd5b60405163468721a760e01b81526000906001600160a01b0386169063468721a790611e509087908790879087906004016147ab565b6020604051808303816000875af1158015611e6f573d6000803e3d6000fd5b505050506040513d601f19601f82011682018060405250810190611e939190614862565b905080611eb357604051632b3f6d1160e21b815260040160405180910390fd5b5050505050565b600061072260013384613718565b600061072260023384613718565b600080611ee583850185614140565b6001600160e01b03191660009081526003602090815260408083203384529091529020546001600160a01b03908116908616149150509392505050565b60008080611f328486018661488c565b915091506000611f42838361375c565b6001600160a01b039081169088161493505050509392505050565b6060601960f81b600160f81b858585604051602001611f7d9291906148b8565b60408051808303601f190181529082905280516020918201206001600160f81b0319958616918301919091529290931660218401526022830152604282015260620160405160208183030381529060405290509392505050565b600080808080611ff7866f71727de22e5e9d8baf0edac6f37da032610d5a565b8351602085012060405163934f3a1160e01b81529498509296509094509250339163934f3a119161202e91889086906004016148de565b60006040518083038186803b15801561204657600080fd5b505afa925050508015612057575060015b61206e57612067600183856137f2565b945061207d565b61207a600083856137f2565b94505b50505050919050565b33600090815260208190526040902080546001600160a01b0319166001600160a01b0386169081179091551561210157612101338560008487876040516024016120d293929190614909565b60408051601f198184030181529190526020810180516001600160e01b031663f05c04e160e01b179052611e1b565b6040516001600160a01b0385169033907f9452c8fb077c3ea8f28a77c87488af657b1e44d010ad9a5992d73870da040e9490600090a350505050565b3360009081527fcc69885fda6bcc1a4ace058b4a62bf5e179ea78fd58a1ccd71c22cc9b688792f602052604090205460609088906001600160a01b031661223557612189600133612669565b60005b8181101561222f57368b8b838181106121a7576121a76146f5565b90506020028101906121b9919061470b565b90506121dd6121cb60208301836145f0565b6121d86020840184614671565b6127d9565b9350612226337f0000000000000000000000000000000000000000000000000000000000000000600161221360208601866145f0565b886040516024016112269392919061472b565b5060010161218c565b50612256565b80156122565760405163d8e3ed1b60e01b815233600482015260240161067c565b612261600233612669565b508560005b818110156122f65736898983818110612281576122816146f5565b9050602002810190612293919061470b565b90506122b76122a560208301836145f0565b6122b26020840184614671565b612835565b93506122ed337f0000000000000000000000000000000000000000000000000000000000000000600261221360208601866145f0565b50600101612266565b5084905060005b8181101561238d5736878783818110612318576123186146f5565b905060200281019061232a919061470b565b905061234e61233c60208301836145f0565b6123496020840184614671565b612850565b9350612384337f0000000000000000000000000000000000000000000000000000000000000000600361221360208601866145f0565b506001016122fd565b5082905060005b8181101561242457368585838181106123af576123af6146f5565b90506020028101906123c1919061470b565b90506123e56123d360208301836145f0565b6123e06020840184614671565b6129cf565b935061241b337f0000000000000000000000000000000000000000000000000000000000000000600461221360208601866145f0565b50600101612394565b5060405133907ff48581d8a62b775b74f2fb67f1d5806a9a356fbcc598040ab3071d3e37af40c290600090a250505050505050505050565b6000610722826080013560801c90565b60006001600160801b03608083013516610722565b600060c082013560801c610722565b60006001600160801b0360c083013516610722565b606060006001600160a01b0384166001148015906124cb57506124c9868686613718565b155b156124f457604051637c84ecfb60e01b81526001600160a01b038516600482015260240161067c565b826000036125155760405163f725081760e01b815260040160405180910390fd5b826001600160401b0381111561252d5761252d6142da565b604051908082528060200260200182016040528015612556578160200160208202803683370190505b506001600160a01b038086166000908152602089815260408083208a85168452909152812054929450911691505b6001600160a01b038216158015906125a657506001600160a01b038216600114155b80156125b157508381105b1561261657818382815181106125c9576125c96146f5565b6001600160a01b039283166020918202929092018101919091529281166000908152888452604080822089841683529094529290922054909116908061260e8161497a565b915050612584565b6001600160a01b0382166001148015906126305750600081115b1561265c5782612641600183614993565b81518110612651576126516146f5565b602002602001015191505b8083525094509492505050565b60016000908152602083815260408083206001600160a01b03808616855292529091205416156126ac576040516329e42f3360e11b815260040160405180910390fd5b60016000818152602093845260408082206001600160a01b0394909416825292909352912080546001600160a01b0319169091179055565b6001600160a01b038116158061270357506001600160a01b0381166001145b1561272c57604051637c84ecfb60e01b81526001600160a01b038216600482015260240161067c565b6001600160a01b038181166000908152602085815260408083208685168452909152902054161561277b57604051631034f46960e21b81526001600160a01b038216600482015260240161067c565b60016000908152602084815260408083206001600160a01b039586168085528184528285208054968816808752988552838620918652908452919093208054949095166001600160a01b031994851617909455528154169091179055565b60608360016127e88282613110565b6127f4600133886126e4565b84848080601f016020809104026020016040519081016040528093929190818152602001838380828437600092019190915250929998505050505050505050565b60608360026128448282613110565b6127f4600233886126e4565b606083600361285f8282613110565b6000808061286f878901896149f7565b919450925090506001600160e01b031983166306d61fe760e41b14806128a557506001600160e01b03198316638a91b0e360e01b145b156128cf576040516379bd117b60e01b81526001600160e01b03198416600482015260240161067c565b6128da826000611d34565b80156128ef57506128ef82607f60f91b611d34565b1561290f57816040516376087dc160e01b815260040161067c919061475e565b6001600160e01b0319831660009081526003602090815260408083203384529091529020546001600160a01b031615612967576040516374420d1560e01b81526001600160e01b03198416600482015260240161067c565b6001600160e01b03199092166000908152600360209081526040808320338452909152902080546001600160a01b038a166001600160a01b031960f89490941c600160a01b02939093166001600160a81b031990911617919091179055925050509392505050565b60608360046129de8282613110565b600080806129ee87890189614a65565b91945092509050600080846001811115612a0a57612a0a614773565b148015612a1f57506001600160e01b03198316155b15612a955750336000908152600460205260409020546001600160a01b03168015612a685760405163741cbe0360e01b81526001600160a01b038216600482015260240161067c565b33600090815260046020526040902080546001600160a01b0319166001600160a01b038c16179055612b62565b6001846001811115612aa957612aa9614773565b03612b4957506001600160e01b0319821660009081526005602090815260408083203384529091529020546001600160a01b03168015612b075760405163741cbe0360e01b81526001600160a01b038216600482015260240161067c565b6001600160e01b031983166000908152600560209081526040808320338452909152902080546001600160a01b0319166001600160a01b038c16179055612b62565b604051635691922f60e01b815260040160405180910390fd5b5098975050505050505050565b60608235830160208181019135908581013586018082019190359060408801358801908101903584838114612bb75760405163b4fa3fb360e01b815260040160405180910390fd5b60005b81811015612cd9576000888883818110612bd657612bd66146f5565b90506020020135905060018103612c1557612c0f8d888885818110612bfd57612bfd6146f5565b90506020028101906121d89190614671565b50612cd0565b60028103612c4557612c0f8d888885818110612c3357612c336146f5565b90506020028101906122b29190614671565b60038103612c7557612c0f8d888885818110612c6357612c636146f5565b90506020028101906123499190614671565b60048103612ca557612c0f8d888885818110612c9357612c936146f5565b90506020028101906123e09190614671565b60405163484d218160e01b81526001600160a01b038e1660048201526024810182905260440161067c565b50600101612bba565b5082828080601f016020809104026020016040519081016040528093929190818152602001838380828437600092019190915250929e9d5050505050505050505050505050565b60405163468721a760e01b81526000906001600160a01b0385169063468721a790612d56908690859087906001906004016147ab565b6020604051808303816000875af1158015612d75573d6000803e3d6000fd5b505050506040513d601f19601f82011682018060405250810190612d999190614862565b9050806107a557604051632b3f6d1160e21b815260040160405180910390fd5b60606000612dc983850185614a93565b92509050612dda600133838861382a565b509392505050565b60606000612df283850185614a93565b92509050612dda600233838861382a565b60606000612e1383850185614ad8565b6001600160e01b03199091166000908152600360209081526040808320338452909152902080546001600160a01b031916905595945050505050565b6060600080612e6084860186614a65565b945090925090506000826001811115612e7b57612e7b614773565b148015612e9057506001600160e01b03198116155b15612eb75733600090815260046020526040902080546001600160a01b0319169055610ca1565b6001826001811115612ecb57612ecb614773565b03612b49576001600160e01b031981166000908152600560209081526040808320338452909152902080546001600160a01b0319169055610ca1565b60608235830160208181019135908581013586018082019190359060408801358801908101903584838114612f4f5760405163b4fa3fb360e01b815260040160405180910390fd5b60005b81811015612cd9576000888883818110612f6e57612f6e6146f5565b90506020020135905060018103612fb257612fac8d888885818110612f9557612f956146f5565b9050602002810190612fa79190614671565b612db9565b50613051565b60028103612fe757612fac8d888885818110612fd057612fd06146f5565b9050602002810190612fe29190614671565b612de2565b6003810361301c57612fac8d888885818110613005576130056146f5565b90506020028101906130179190614671565b612e03565b60048103612ca557612fac8d88888581811061303a5761303a6146f5565b905060200281019061304c9190614671565b612e4f565b50600101612f52565b60405163468721a760e01b81526000906001600160a01b0385169063468721a790613090908690859087906001906004016147ab565b6020604051808303816000875af11580156130af573d6000803e3d6000fd5b505050506040513d601f19601f820116820180604052508101906130d39190614862565b9050806107a557604080516001600160a01b038616815260006020820152600080516020614d59833981519152910160405180910390a150505050565b336000908152602081905260409020546001600160a01b031680156131965760405163529562a160e01b81523360048201526001600160a01b0384811660248301526044820184905282169063529562a19060640160006040518083038186803b15801561317d57600080fd5b505afa158015613191573d6000803e3d6000fd5b505050505b505050565b60606131a8856000611d34565b15613394576131bb84600160f81b611d34565b156131de57823583016020810190356131d5338383613921565b92505050610818565b6131e9846000611d34565b1561329d576000803660006131fe87876135aa565b6040805160018082528183019092529498509296509094509250816020015b606081526020019060019003908161321d57905050945061327633858585858080601f016020809104026020016040519081016040528093929190818152602001838380828437600092019190915250611c8b92505050565b85600081518110613289576132896146f5565b602002602001018190525050505050610818565b6132af846001600160f81b0319611d34565b156133795760006132c36014828587614404565b6132cc9161442e565b60601c90503660006132e18560148189614404565b604080516001808252818301909252929450909250816020015b60608152602001906001900390816132fb579050509350613353338484848080601f01602080910402602001604051908101604052809392919081815260200183838082843760009201919091525061399d92505050565b84600081518110613366576133666146f5565b6020026020010181905250505050610818565b83604051632e5bf3f960e21b815260040161067c919061475e565b6133a285600160f81b611d34565b15613528576133b584600160f81b611d34565b156133da57823583016020810190356133cf338383613a3e565b935061081892505050565b6133e5846000611d34565b15613472576000803660006133fa87876135aa565b6040805160018082528183019092529498509296509094509250816020015b606081526020019060019003908161341957905050945061327633858585858080601f016020809104026020016040519081016040528093929190818152602001838380828437600092019190915250613b3492505050565b613484846001600160f81b0319611d34565b156133795760006134986014828587614404565b6134a19161442e565b60601c90503660006134b68560148189614404565b604080516001808252818301909252929450909250816020015b60608152602001906001900390816134d0579050509350613353338484848080601f016020809104026020016040519081016040528093929190818152602001838380828437600092019190915250613bf492505050565b846040516308c3ee0360e11b815260040161067c919061475e565b613196837f0000000000000000000000000000000000000000000000000000000000000000848460405160240161357b929190614af6565b60408051601f198184030181529190526020810180516001600160e01b0316633f707e6b60e01b179052612d20565b60008036816135bc6014828789614404565b6135c59161442e565b60601c93506135d8603460148789614404565b6135e191614ba1565b92506135f08560348189614404565b949793965094505050565b613196837f00000000000000000000000000000000000000000000000000000000000000008484604051602401613633929190614af6565b60408051601f198184030181529190526020810180516001600160e01b0316632864481160e11b17905261305a565b60405163468721a760e01b81526000906001600160a01b0386169063468721a7906136979087908790879087906004016147ab565b6020604051808303816000875af11580156136b6573d6000803e3d6000fd5b505050506040513d601f19601f820116820180604052508101906136da9190614862565b905080611eb357604080516001600160a01b038716815260006020820152600080516020614d59833981519152910160405180910390a15050505050565b600060016001600160a01b038316148015906108185750506001600160a01b0390811660009081526020938452604080822093831682529290935291205416151590565b60008083600181111561377157613771614773565b14801561378657506001600160e01b03198216155b156137a65750336000908152600460205260409020546001600160a01b03165b60018360018111156137ba576137ba614773565b0361072257506001600160e01b03191660009081526005602090815260408083203384529091529020546001600160a01b0316919050565b600060d08265ffffffffffff16901b60a08465ffffffffffff16901b8561381a57600061381d565b60015b60ff161717949350505050565b6001600160a01b038116158061384957506001600160a01b0381166001145b1561387257604051637c84ecfb60e01b81526001600160a01b038316600482015260240161067c565b6001600160a01b0382811660009081526020868152604080832087851684529091529020548116908216146138c557604051637c84ecfb60e01b81526001600160a01b038216600482015260240161067c565b6001600160a01b039081166000908152602085815260408083209584168084528683528184208054968616855297835281842090845282529091208054939092166001600160a01b031993841617909155919091528154169055565b606061398a847f0000000000000000000000000000000000000000000000000000000000000000858560405160240161395b929190614af6565b60408051601f198184030181529190526020810180516001600160e01b0316636108557360e01b17905261399d565b8060200190518101906108189190614c6c565b60606000846001600160a01b0316635229073f8560008660016040518563ffffffff1660e01b81526004016139d594939291906147ab565b6000604051808303816000875af11580156139f4573d6000803e3d6000fd5b505050506040513d6000823e601f3d908101601f19168201604052613a1c91908101906147f1565b9250905080612dda57604051632b3f6d1160e21b815260040160405180910390fd5b6060806000613aaa867f00000000000000000000000000000000000000000000000000000000000000008787604051602401613a7b929190614af6565b60408051601f198184030181529190526020810180516001600160e01b0316639abb6e1760e01b179052613bf4565b905080806020019051810190613ac09190614ca0565b8151919450925060005b81811015613b2957848181518110613ae457613ae46146f5565b6020026020010151613b2157604080516001600160a01b038a16815260208101839052600080516020614d59833981519152910160405180910390a15b600101613aca565b505050935093915050565b60606000856001600160a01b0316635229073f86868660006040518563ffffffff1660e01b8152600401613b6b94939291906147ab565b6000604051808303816000875af1158015613b8a573d6000803e3d6000fd5b505050506040513d6000823e601f3d908101601f19168201604052613bb291908101906147f1565b9250905080611d2b57604080516001600160a01b038816815260006020820152600080516020614d59833981519152910160405180910390a150949350505050565b60606000846001600160a01b0316635229073f8560008660016040518563ffffffff1660e01b8152600401613c2c94939291906147ab565b6000604051808303816000875af1158015613c4b573d6000803e3d6000fd5b505050506040513d6000823e601f3d908101601f19168201604052613c7391908101906147f1565b9250905080612dda57604080516001600160a01b038716815260006020820152600080516020614d59833981519152910160405180910390a1509392505050565b6001600160a01b0381168114613cc957600080fd5b50565b8035611c2181613cb4565b60008083601f840112613ce957600080fd5b5081356001600160401b03811115613d0057600080fd5b60208301915083602082850101111561060e57600080fd5b60008060008060608587031215613d2e57600080fd5b843593506020850135613d4081613cb4565b925060408501356001600160401b03811115613d5b57600080fd5b613d6787828801613cd7565b95989497509550505050565b600080600060408486031215613d8857600080fd5b8335925060208401356001600160401b03811115613da557600080fd5b613db186828701613cd7565b9497909650939450505050565b60006101208284031215613dd157600080fd5b50919050565b600080600060608486031215613dec57600080fd5b83356001600160401b03811115613e0257600080fd5b613e0e86828701613dbe565b9660208601359650604090950135949350505050565b60008083601f840112613e3657600080fd5b5081356001600160401b03811115613e4d57600080fd5b6020830191508360208260051b850101111561060e57600080fd5b600060608284031215613dd157600080fd5b600080600080600080600080600060a08a8c031215613e9857600080fd5b89356001600160401b0380821115613eaf57600080fd5b613ebb8d838e01613e24565b909b50995060208c0135915080821115613ed457600080fd5b613ee08d838e01613e24565b909950975060408c0135915080821115613ef957600080fd5b613f058d838e01613e24565b909750955060608c0135915080821115613f1e57600080fd5b613f2a8d838e01613e24565b909550935060808c0135915080821115613f4357600080fd5b50613f508c828d01613e68565b9150509295985092959850929598565b60008060408385031215613f7357600080fd5b82356001600160401b03811115613f8957600080fd5b613f9585828601613dbe565b9250506020830135613fa681613cb4565b809150509250929050565b60005b83811015613fcc578181015183820152602001613fb4565b50506000910152565b60008151808452613fed816020860160208601613fb1565b601f01601f19169290920160200192915050565b6080815260006140146080830187613fd5565b65ffffffffffff868116602085015285166040840152828103606084015261403c8185613fd5565b979650505050505050565b6000806040838503121561405a57600080fd5b823561406581613cb4565b946020939093013593505050565b604080825283519082018190526000906020906060840190828701845b828110156140b55781516001600160a01b031684529284019290840190600101614090565b5050506001600160a01b039490941660209390930192909252509092915050565b600080602083850312156140e957600080fd5b82356001600160401b038111156140ff57600080fd5b61410b85828601613e24565b90969095509350505050565b602081526000610b8f6020830184613fd5565b6001600160e01b031981168114613cc957600080fd5b60006020828403121561415257600080fd5b8135610b8f8161412a565b60006020828403121561416f57600080fd5b5035919050565b600060208083016020845280855180835260408601915060408160051b87010192506020870160005b828110156141cd57603f198886030184526141bb858351613fd5565b9450928501929085019060010161419f565b5092979650505050505050565b600080604083850312156141ed57600080fd5b82356141f881613cb4565b91506020830135613fa681613cb4565b803560ff81168114611c2157600080fd5b6000806000806060858703121561422f57600080fd5b843561423a81613cb4565b935060208501356001600160401b0381111561425557600080fd5b61426187828801613e24565b9094509250614274905060408601614208565b905092959194509250565b81835281816020850137506000828201602090810191909152601f909101601f19169091010190565b60018060a01b03851681528360208201526060604082015260006142d060608301848661427f565b9695505050505050565b634e487b7160e01b600052604160045260246000fd5b604051601f8201601f191681016001600160401b0381118282101715614318576143186142da565b604052919050565b60006001600160401b03821115614339576143396142da565b50601f01601f191660200190565b600082601f83011261435857600080fd5b815161436b61436682614320565b6142f0565b81815284602083860101111561438057600080fd5b610818826020830160208701613fb1565b6000602082840312156143a357600080fd5b81516001600160401b038111156143b957600080fd5b61081884828501614347565b8284823760609190911b6bffffffffffffffffffffffff19169101908152601401919050565b6000602082840312156143fd57600080fd5b5051919050565b6000808585111561441457600080fd5b8386111561442157600080fd5b5050820193919092039150565b6bffffffffffffffffffffffff19813581811691601485101561445b5780818660140360031b1b83161692505b505092915050565b84815260606020820152600061447c6060830186613fd5565b828103604084015261403c81858761427f565b6000602082840312156144a157600080fd5b8151610b8f8161412a565b6000808335601e198436030181126144c357600080fd5b83016020810192503590506001600160401b038111156144e257600080fd5b80360382131561060e57600080fd5b604081526145126040820161450585613ccc565b6001600160a01b03169052565b60208301356060820152600061452b60408501856144ac565b6101208060808601526145436101608601838561427f565b925061455260608801886144ac565b9250603f19808786030160a088015261456c85858461427f565b9450608089013560c088015260a089013560e0880152610100935060c08901358488015261459d60e08a018a6144ac565b92508188870301848901526145b386848361427f565b9550506145c2848a018a6144ac565b94509250808786030161014088015250506145de83838361427f565b93505050508260208301529392505050565b60006020828403121561460257600080fd5b8135610b8f81613cb4565b6000808335601e1984360301811261462457600080fd5b8301803591506001600160401b0382111561463e57600080fd5b6020019150600581901b360382131561060e57600080fd5b60006020828403121561466857600080fd5b610b8f82614208565b6000808335601e1984360301811261468857600080fd5b8301803591506001600160401b038211156146a257600080fd5b60200191503681900382131561060e57600080fd5b6001600160d01b0319813581811691600685101561445b5760069490940360031b84901b1690921692915050565b8183823760009101908152919050565b634e487b7160e01b600052603260045260246000fd5b60008235603e1983360301811261472157600080fd5b9190910192915050565b8381526001600160a01b038316602082015260606040820181905260009061475590830184613fd5565b95945050505050565b6001600160f81b031991909116815260200190565b634e487b7160e01b600052602160045260246000fd5b600281106147a757634e487b7160e01b600052602160045260246000fd5b9052565b60018060a01b03851681528360208201526080604082015260006147d26080830185613fd5565b90506147556060830184614789565b80518015158114611c2157600080fd5b6000806040838503121561480457600080fd5b61480d836147e1565b915060208301516001600160401b0381111561482857600080fd5b61483485828601614347565b9150509250929050565b6001600160a01b038316815260406020820181905260009061081890830184613fd5565b60006020828403121561487457600080fd5b610b8f826147e1565b803560028110611c2157600080fd5b6000806040838503121561489f57600080fd5b6148a88361487d565b91506020830135613fa68161412a565b828152600082516148d0816020850160208701613fb1565b919091016020019392505050565b8381526060602082015260006148f76060830185613fd5565b82810360408401526142d08185613fd5565b60ff8416815260406020808301829052908201839052600090849060608401835b8681101561495857833561493d81613cb4565b6001600160a01b03168252928201929082019060010161492a565b50979650505050505050565b634e487b7160e01b600052601160045260246000fd5b60006001820161498c5761498c614964565b5060010190565b8181038181111561072257610722614964565b600082601f8301126149b757600080fd5b81356149c561436682614320565b8181528460208386010111156149da57600080fd5b816020850160208301376000918101602001919091529392505050565b600080600060608486031215614a0c57600080fd5b8335614a178161412a565b925060208401356001600160f81b031981168114614a3457600080fd5b915060408401356001600160401b03811115614a4f57600080fd5b614a5b868287016149a6565b9150509250925092565b600080600060608486031215614a7a57600080fd5b614a838461487d565b92506020840135614a348161412a565b60008060408385031215614aa657600080fd5b8235614ab181613cb4565b915060208301356001600160401b03811115614acc57600080fd5b614834858286016149a6565b60008060408385031215614aeb57600080fd5b8235614ab18161412a565b60208082528181018390526000906040808401600586901b850182018785805b89811015614b9257888403603f190185528235368c9003605e19018112614b3b578283fd5b8b0160608135614b4a81613cb4565b6001600160a01b031686528189013589870152614b69888301836144ac565b92508189880152614b7d828801848361427f565b978a0197965050509287019250600101614b16565b50919998505050505050505050565b8035602083101561072257600019602084900360031b1b1692915050565b60006001600160401b03821115614bd857614bd86142da565b5060051b60200190565b600082601f830112614bf357600080fd5b81516020614c0361436683614bbf565b82815260059290921b84018101918181019086841115614c2257600080fd5b8286015b84811015614c615780516001600160401b03811115614c455760008081fd5b614c538986838b0101614347565b845250918301918301614c26565b509695505050505050565b600060208284031215614c7e57600080fd5b81516001600160401b03811115614c9457600080fd5b61081884828501614be2565b60008060408385031215614cb357600080fd5b82516001600160401b0380821115614cca57600080fd5b818501915085601f830112614cde57600080fd5b81516020614cee61436683614bbf565b82815260059290921b84018101918181019089841115614d0d57600080fd5b948201945b83861015614d3257614d23866147e1565b82529482019490820190614d12565b91880151919650909350505080821115614d4b57600080fd5b5061483485828601614be256feb8bc84bd77f5eb08210b8eb20fd63b3ec6a7992d277ab94663bae0e066f792aca26469706673582212206a4570302301109768cd2226986506a7949dc03296a54ddddaf2fd058fa4f46c64736f6c634300081900336080604052348015600f57600080fd5b506109aa8061001f6000396000f3fe608060405234801561001057600080fd5b506004361061007d5760003560e01c80636a2216571161005b5780636a221657146100d357806378272525146100e65780639517e29f146100f95780639abb6e171461010c57600080fd5b80633f707e6b1461008257806350c890221461009757806361085573146100aa575b600080fd5b6100956100903660046105ba565b61012d565b005b6100956100a53660046105ba565b610197565b6100bd6100b83660046105ba565b6101fc565b6040516100ca91906106b7565b60405180910390f35b6100956100e1366004610703565b6102be565b6100956100f43660046107c5565b6102e1565b6100956101073660046107c5565b61038a565b61011f61011a3660046105ba565b610429565b6040516100ca92919061084c565b8060005b81811015610191573684848381811061014c5761014c6108a6565b905060200281019061015e91906108bc565b905061018761017060208301836108dc565b602083013561018260408501856108f7565b610553565b5050600101610131565b50505050565b8060005b8181101561019157368484838181106101b6576101b66108a6565b90506020028101906101c891906108bc565b90506101f16101da60208301836108dc565b60208301356101ec60408501856108f7565b610589565b50505060010161019b565b6060818067ffffffffffffffff811115610218576102186106ed565b60405190808252806020026020018201604052801561024b57816020015b60608152602001906001900390816102365790505b50915060005b818110156102b6573685858381811061026c5761026c6108a6565b905060200281019061027e91906108bc565b905061029061017060208301836108dc565b8483815181106102a2576102a26108a6565b602090810291909101015250600101610251565b505092915050565b604051600080835160208501865afa3d6000833e80156102dc573d82f35b503d81fd5b604051638a91b0e360e01b81526001600160a01b03841690638a91b0e39061030f9085908590600401610945565b600060405180830381600087803b15801561032957600080fd5b505af115801561033d573d6000803e3d6000fd5b5050604080518781526001600160a01b03871660208201527f341347516a9de374859dfda710fa4828b2d48cb57d4fbe4c1149612b8e02276e93500190505b60405180910390a150505050565b6040516306d61fe760e41b81526001600160a01b03841690636d61fe70906103b89085908590600401610945565b600060405180830381600087803b1580156103d257600080fd5b505af11580156103e6573d6000803e3d6000fd5b5050604080518781526001600160a01b03871660208201527fd21d0b289f126c4b473ea641963e766833c2f13866e4ff480abd787c100ef123935001905061037c565b606080828067ffffffffffffffff811115610446576104466106ed565b60405190808252806020026020018201604052801561047957816020015b60608152602001906001900390816104645790505b5091508067ffffffffffffffff811115610495576104956106ed565b6040519080825280602002602001820160405280156104be578160200160208202803683370190505b50925060005b8181101561054a57368686838181106104df576104df6108a6565b90506020028101906104f191906108bc565b90506105036101da60208301836108dc565b868481518110610515576105156108a6565b6020026020010186858151811061052e5761052e6108a6565b60209081029190910101919091529015159052506001016104c4565b50509250929050565b60405181838237600038838387895af1610570573d6000823e3d81fd5b3d8152602081013d6000823e3d01604052949350505050565b604051600090828482376000388483888a5af191503d8152602081013d6000823e3d81016040525094509492505050565b600080602083850312156105cd57600080fd5b823567ffffffffffffffff808211156105e557600080fd5b818501915085601f8301126105f957600080fd5b81358181111561060857600080fd5b8660208260051b850101111561061d57600080fd5b60209290920196919550909350505050565b600082825180855260208086019550808260051b8401018186016000805b858110156106a957601f1980888603018b5283518051808752845b81811015610683578281018901518882018a01528801610668565b5086810188018590529b87019b601f01909116909401850193509184019160010161064d565b509198975050505050505050565b6020815260006106ca602083018461062f565b9392505050565b80356001600160a01b03811681146106e857600080fd5b919050565b634e487b7160e01b600052604160045260246000fd5b6000806040838503121561071657600080fd5b61071f836106d1565b9150602083013567ffffffffffffffff8082111561073c57600080fd5b818501915085601f83011261075057600080fd5b813581811115610762576107626106ed565b604051601f8201601f19908116603f0116810190838211818310171561078a5761078a6106ed565b816040528281528860208487010111156107a357600080fd5b8260208601602083013760006020848301015280955050505050509250929050565b600080600080606085870312156107db57600080fd5b843593506107eb602086016106d1565b9250604085013567ffffffffffffffff8082111561080857600080fd5b818701915087601f83011261081c57600080fd5b81358181111561082b57600080fd5b88602082850101111561083d57600080fd5b95989497505060200194505050565b604080825283519082018190526000906020906060840190828701845b82811015610887578151151584529284019290840190600101610869565b505050838103602085015261089c818661062f565b9695505050505050565b634e487b7160e01b600052603260045260246000fd5b60008235605e198336030181126108d257600080fd5b9190910192915050565b6000602082840312156108ee57600080fd5b6106ca826106d1565b6000808335601e1984360301811261090e57600080fd5b83018035915067ffffffffffffffff82111561092957600080fd5b60200191503681900382131561093e57600080fd5b9250929050565b60208152816020820152818360408301376000818301604090810191909152601f909201601f1916010191905056fea26469706673582212209f429ac400d86c0f380488eb0679b369767c8ff7e7f1ec00b3dcb38def4d377964736f6c63430008190033","linkReferences":{}},"methodIdentifiers":{"accountId()":"9cfd7cff","domainSeparator()":"f698da25","entryPoint()":"b0d691fe","execute(bytes32,bytes)":"e9ae5c53","executeFromExecutor(bytes32,bytes)":"d691c964","getActiveHook()":"0a664dba","getActiveHook(bytes4)":"b875d5d8","getExecutorsPaginated(address,uint256)":"ea5f61d0","getNonce(address,address)":"d828435d","getSafeOp((address,uint256,bytes,bytes,bytes32,uint256,bytes32,bytes,bytes),address)":"55d559f4","getValidatorsPaginated(address,uint256)":"5faac46b","initializeAccount((address,bytes)[],(address,bytes)[],(address,bytes)[],(address,bytes)[],(address,address[],uint8))":"540fb4f9","initializeAccountWithValidators((address,bytes)[])":"79aad60e","installModule(uint256,address,bytes)":"9517e29f","isModuleInstalled(uint256,address,bytes)":"112d3a7d","isValidSignature(bytes32,bytes)":"1626ba7e","setRegistry(address,address[],uint8)":"eab77e17","supportsExecutionMode(bytes32)":"d03c7914","supportsModule(uint256)":"f2dc691d","uninstallModule(uint256,address,bytes)":"a71763a8","validateUserOp((address,uint256,bytes,bytes,bytes32,uint256,bytes32,bytes,bytes),bytes32,uint256)":"19822f7c"},"id":144}