{"abi":[{"type":"constructor","inputs":[{"name":"entryPoint","type":"address","internalType":"address"},{"name":"registry","type":"address","internalType":"contract IERC7484"}],"stateMutability":"nonpayable"},{"type":"receive","stateMutability":"payable"},{"type":"function","name":"REGISTRY","inputs":[],"outputs":[{"name":"","type":"address","internalType":"contract IERC7484"}],"stateMutability":"view"},{"type":"function","name":"SUPPORTED_ENTRYPOINT","inputs":[],"outputs":[{"name":"","type":"address","internalType":"address"}],"stateMutability":"view"},{"type":"function","name":"accountId","inputs":[],"outputs":[{"name":"accountImplementationId","type":"string","internalType":"string"}],"stateMutability":"pure"},{"type":"function","name":"addSafe7579","inputs":[{"name":"safe7579","type":"address","internalType":"address"},{"name":"validators","type":"tuple[]","internalType":"struct ModuleInit[]","components":[{"name":"module","type":"address","internalType":"address"},{"name":"initData","type":"bytes","internalType":"bytes"}]},{"name":"executors","type":"tuple[]","internalType":"struct ModuleInit[]","components":[{"name":"module","type":"address","internalType":"address"},{"name":"initData","type":"bytes","internalType":"bytes"}]},{"name":"fallbacks","type":"tuple[]","internalType":"struct ModuleInit[]","components":[{"name":"module","type":"address","internalType":"address"},{"name":"initData","type":"bytes","internalType":"bytes"}]},{"name":"hooks","type":"tuple[]","internalType":"struct ModuleInit[]","components":[{"name":"module","type":"address","internalType":"address"},{"name":"initData","type":"bytes","internalType":"bytes"}]},{"name":"attesters","type":"address[]","internalType":"address[]"},{"name":"threshold","type":"uint8","internalType":"uint8"}],"outputs":[],"stateMutability":"nonpayable"},{"type":"function","name":"domainSeparator","inputs":[],"outputs":[{"name":"","type":"bytes32","internalType":"bytes32"}],"stateMutability":"view"},{"type":"function","name":"getInitHash","inputs":[],"outputs":[{"name":"value","type":"bytes32","internalType":"bytes32"}],"stateMutability":"view"},{"type":"function","name":"getSafeOp","inputs":[{"name":"userOp","type":"tuple","internalType":"struct PackedUserOperation","components":[{"name":"sender","type":"address","internalType":"address"},{"name":"nonce","type":"uint256","internalType":"uint256"},{"name":"initCode","type":"bytes","internalType":"bytes"},{"name":"callData","type":"bytes","internalType":"bytes"},{"name":"accountGasLimits","type":"bytes32","internalType":"bytes32"},{"name":"preVerificationGas","type":"uint256","internalType":"uint256"},{"name":"gasFees","type":"bytes32","internalType":"bytes32"},{"name":"paymasterAndData","type":"bytes","internalType":"bytes"},{"name":"signature","type":"bytes","internalType":"bytes"}]},{"name":"entryPoint","type":"address","internalType":"address"}],"outputs":[{"name":"operationData","type":"bytes","internalType":"bytes"},{"name":"validAfter","type":"uint48","internalType":"uint48"},{"name":"validUntil","type":"uint48","internalType":"uint48"},{"name":"signatures","type":"bytes","internalType":"bytes"}],"stateMutability":"view"},{"type":"function","name":"hash","inputs":[{"name":"data","type":"tuple","internalType":"struct Safe7579Launchpad.InitData","components":[{"name":"singleton","type":"address","internalType":"address"},{"name":"owners","type":"address[]","internalType":"address[]"},{"name":"threshold","type":"uint256","internalType":"uint256"},{"name":"setupTo","type":"address","internalType":"address"},{"name":"setupData","type":"bytes","internalType":"bytes"},{"name":"safe7579","type":"address","internalType":"contract ISafe7579"},{"name":"validators","type":"tuple[]","internalType":"struct ModuleInit[]","components":[{"name":"module","type":"address","internalType":"address"},{"name":"initData","type":"bytes","internalType":"bytes"}]},{"name":"callData","type":"bytes","internalType":"bytes"}]}],"outputs":[{"name":"","type":"bytes32","internalType":"bytes32"}],"stateMutability":"pure"},{"type":"function","name":"initSafe7579","inputs":[{"name":"safe7579","type":"address","internalType":"address"},{"name":"executors","type":"tuple[]","internalType":"struct ModuleInit[]","components":[{"name":"module","type":"address","internalType":"address"},{"name":"initData","type":"bytes","internalType":"bytes"}]},{"name":"fallbacks","type":"tuple[]","internalType":"struct ModuleInit[]","components":[{"name":"module","type":"address","internalType":"address"},{"name":"initData","type":"bytes","internalType":"bytes"}]},{"name":"hooks","type":"tuple[]","internalType":"struct ModuleInit[]","components":[{"name":"module","type":"address","internalType":"address"},{"name":"initData","type":"bytes","internalType":"bytes"}]},{"name":"attesters","type":"address[]","internalType":"address[]"},{"name":"threshold","type":"uint8","internalType":"uint8"}],"outputs":[],"stateMutability":"nonpayable"},{"type":"function","name":"preValidationSetup","inputs":[{"name":"initHash","type":"bytes32","internalType":"bytes32"},{"name":"to","type":"address","internalType":"address"},{"name":"preInit","type":"bytes","internalType":"bytes"}],"outputs":[],"stateMutability":"nonpayable"},{"type":"function","name":"predictSafeAddress","inputs":[{"name":"singleton","type":"address","internalType":"address"},{"name":"safeProxyFactory","type":"address","internalType":"address"},{"name":"creationCode","type":"bytes","internalType":"bytes"},{"name":"salt","type":"bytes32","internalType":"bytes32"},{"name":"factoryInitializer","type":"bytes","internalType":"bytes"}],"outputs":[{"name":"safeProxy","type":"address","internalType":"address"}],"stateMutability":"pure"},{"type":"function","name":"setupSafe","inputs":[{"name":"initData","type":"tuple","internalType":"struct Safe7579Launchpad.InitData","components":[{"name":"singleton","type":"address","internalType":"address"},{"name":"owners","type":"address[]","internalType":"address[]"},{"name":"threshold","type":"uint256","internalType":"uint256"},{"name":"setupTo","type":"address","internalType":"address"},{"name":"setupData","type":"bytes","internalType":"bytes"},{"name":"safe7579","type":"address","internalType":"contract ISafe7579"},{"name":"validators","type":"tuple[]","internalType":"struct ModuleInit[]","components":[{"name":"module","type":"address","internalType":"address"},{"name":"initData","type":"bytes","internalType":"bytes"}]},{"name":"callData","type":"bytes","internalType":"bytes"}]}],"outputs":[],"stateMutability":"nonpayable"},{"type":"function","name":"supportsExecutionMode","inputs":[{"name":"encodedMode","type":"bytes32","internalType":"ModeCode"}],"outputs":[{"name":"supported","type":"bool","internalType":"bool"}],"stateMutability":"pure"},{"type":"function","name":"supportsModule","inputs":[{"name":"moduleTypeId","type":"uint256","internalType":"uint256"}],"outputs":[{"name":"","type":"bool","internalType":"bool"}],"stateMutability":"pure"},{"type":"function","name":"validateUserOp","inputs":[{"name":"userOp","type":"tuple","internalType":"struct PackedUserOperation","components":[{"name":"sender","type":"address","internalType":"address"},{"name":"nonce","type":"uint256","internalType":"uint256"},{"name":"initCode","type":"bytes","internalType":"bytes"},{"name":"callData","type":"bytes","internalType":"bytes"},{"name":"accountGasLimits","type":"bytes32","internalType":"bytes32"},{"name":"preVerificationGas","type":"uint256","internalType":"uint256"},{"name":"gasFees","type":"bytes32","internalType":"bytes32"},{"name":"paymasterAndData","type":"bytes","internalType":"bytes"},{"name":"signature","type":"bytes","internalType":"bytes"}]},{"name":"userOpHash","type":"bytes32","internalType":"bytes32"},{"name":"missingAccountFunds","type":"uint256","internalType":"uint256"}],"outputs":[{"name":"validationData","type":"uint256","internalType":"uint256"}],"stateMutability":"nonpayable"},{"type":"event","name":"ModuleInstalled","inputs":[{"name":"moduleTypeId","type":"uint256","indexed":false,"internalType":"uint256"},{"name":"module","type":"address","indexed":false,"internalType":"address"}],"anonymous":false},{"type":"event","name":"ModuleUninstalled","inputs":[{"name":"moduleTypeId","type":"uint256","indexed":false,"internalType":"uint256"},{"name":"module","type":"address","indexed":false,"internalType":"address"}],"anonymous":false},{"type":"error","name":"InvalidEntryPoint","inputs":[]},{"type":"error","name":"InvalidInitHash","inputs":[]},{"type":"error","name":"InvalidSetup","inputs":[]},{"type":"error","name":"InvalidSignature","inputs":[]},{"type":"error","name":"InvalidUserOperationData","inputs":[]},{"type":"error","name":"OnlyDelegatecall","inputs":[]},{"type":"error","name":"OnlyProxy","inputs":[]},{"type":"error","name":"PreValidationSetupFailed","inputs":[]},{"type":"error","name":"Safe7579LaunchpadAlreadyInitialized","inputs":[]},{"type":"error","name":"WrongContractSignature","inputs":[{"name":"contractSignature","type":"bytes","internalType":"bytes"}]},{"type":"error","name":"WrongContractSignatureFormat","inputs":[{"name":"s","type":"uint256","internalType":"uint256"},{"name":"contractSignatureLen","type":"uint256","internalType":"uint256"},{"name":"signaturesLen","type":"uint256","internalType":"uint256"}]}],"bytecode":{"object":"0x60e060405234801561001057600080fd5b50604051612d67380380612d6783398101604081905261002f91610089565b6001600160a01b03821661005657604051632039d3c960e01b815260040160405180910390fd5b306080526001600160a01b0391821660a0521660c0526100c3565b6001600160a01b038116811461008657600080fd5b50565b6000806040838503121561009c57600080fd5b82516100a781610071565b60208401519092506100b881610071565b809150509250929050565b60805160a05160c051612c3e61012960003960008181610159015281816104900152610fc60152600081816101aa015281816105be015281816110a701526113ea01526000818160f6015281816105690152818161099301526111100152612c3e6000f3fe6080604052600436106100ec5760003560e01c8063663c87d81161008a578063d78343d911610059578063d78343d914610348578063d9ed0e8f14610368578063f2dc691d14610388578063f698da25146103a857600080fd5b8063663c87d81461028c578063928107f9146102ac5780639cfd7cff146102cc578063d03c79141461031857600080fd5b806319822f7c116100c657806319822f7c146101ec5780633c9de1b81461021a5780634fff40e11461023c57806355d559f41461025c57600080fd5b806306433b1b14610147578063137e051e1461019857806315cca638146101cc57600080fd5b36610142576000547f00000000000000000000000000000000000000000000000000000000000000006001600160a01b03908116911614610140576040516308e3edd160e41b815260040160405180910390fd5b005b600080fd5b34801561015357600080fd5b5061017b7f000000000000000000000000000000000000000000000000000000000000000081565b6040516001600160a01b0390911681526020015b60405180910390f35b3480156101a457600080fd5b5061017b7f000000000000000000000000000000000000000000000000000000000000000081565b3480156101d857600080fd5b506101406101e7366004611aac565b6103bd565b3480156101f857600080fd5b5061020c610207366004611ba9565b610563565b60405190815260200161018f565b34801561022657600080fd5b50600080516020612be98339815191525461020c565b34801561024857600080fd5b50610140610257366004611bf6565b61098e565b34801561026857600080fd5b5061027c610277366004611c7e565b610abe565b60405161018f9493929190611d1f565b34801561029857600080fd5b5061017b6102a7366004611e73565b610d1b565b3480156102b857600080fd5b5061020c6102c7366004612065565b610df5565b3480156102d857600080fd5b50604080518082018252601a81527f7268696e6573746f6e652e73616665373537392e76312e302e300000000000006020820152905161018f919061217b565b34801561032457600080fd5b50610338610333366004612195565b610e47565b604051901515815260200161018f565b34801561035457600080fd5b506101406103633660046121ae565b610ef0565b34801561037457600080fd5b506101406103833660046122da565b61109c565b34801561039457600080fd5b506103386103a3366004612195565b611324565b3480156103b457600080fd5b5061020c611373565b3330146103dd57604051630a57d61d60e01b815260040160405180910390fd5b60405163610b592560e01b81526001600160a01b038b166004820152309063610b592590602401600060405180830381600087803b15801561041e57600080fd5b505af1158015610432573d6000803e3d6000fd5b50506040805160008082526020820190925230935063540fb4f992509061047c565b6040805180820190915260008152606060208201528152602001906001900390816104545790505b508b8b8b8b8b8b60405180606001604052807f00000000000000000000000000000000000000000000000000000000000000006001600160a01b031681526020018d8d8080602002602001604051908101604052809392919081815260200183836020028082843760009201919091525050509082525060ff8c166020909101526040516001600160e01b031960e08b901b168152610525989796959493929190600401612517565b600060405180830381600087803b15801561053f57600080fd5b505af1158015610553573d6000803e3d6000fd5b5050505050505050505050505050565b600080547f00000000000000000000000000000000000000000000000000000000000000006001600160a01b039081169116146105b3576040516308e3edd160e41b815260040160405180910390fd5b336001600160a01b037f000000000000000000000000000000000000000000000000000000000000000016146105fc57604051632039d3c960e01b815260040160405180910390fd5b610609606085018561258a565b610618916004916000916125d0565b610621916125fa565b6001600160e01b03191663d9ed0e8f60e01b146106515760405163c3d40f7760e01b815260040160405180910390fd5b6000610660606086018661258a565b61066e9160049082906125d0565b81019061067b9190612065565b9050610693600080516020612be98339815191525490565b61069c82610df5565b146106ba5760405163278328b160e21b815260040160405180910390fd5b600080866020013590508060601c915060008360a001516001600160a01b03168460c001516040516024016106ef919061262a565b60408051601f19818403018152918152602080830180516001600160e01b0316633cd56b0760e11b1790529051610729929133910161263d565b60408051601f19818403018152908290526107439161266f565b6000604051808303816000865af19150503d8060008114610780576040519150601f19603f3d011682016040523d82523d6000602084013e610785565b606091505b50509050806107a75760405163c3d40f7760e01b815260040160405180910390fd5b60c084015151600090815b818110156108c95760008760c0015182815181106107d2576107d261268b565b6020026020010151600001519050806001600160a01b0316636d61fe708960c0015184815181106108055761080561268b565b6020026020010151602001516040518263ffffffff1660e01b815260040161082d919061217b565b600060405180830381600087803b15801561084757600080fd5b505af115801561085b573d6000803e3d6000fd5b505060408051600181526001600160a01b03851660208201527fd21d0b289f126c4b473ea641963e766833c2f13866e4ff480abd787c100ef123935001905060405180910390a1866001600160a01b0316816001600160a01b0316036108c057600193505b506001016107b2565b50811561094857604051639700320360e01b81526001600160a01b038616906397003203906108fe908d908d90600401612775565b6020604051808303816000875af115801561091d573d6000803e3d6000fd5b505050506040513d601f19601f820116820180604052508101906109419190612797565b965061096f565b6000806000610957898e6113cc565b92509250925061096983158383611542565b99505050505b8715610981576000806000808b335af1505b5050505050509392505050565b6000547f00000000000000000000000000000000000000000000000000000000000000006001600160a01b039081169116146109dd576040516308e3edd160e41b815260040160405180910390fd5b60006109f5600080516020612be98339815191525490565b14610a135760405163d4d496e560e01b815260040160405180910390fd5b610a2984600080516020612be983398151915255565b6001600160a01b03831615610ab8576000836001600160a01b03168383604051610a549291906127b0565b600060405180830381855af49150503d8060008114610a8f576040519150601f19603f3d011682016040523d82523d6000602084013e610a94565b606091505b5050905080610ab657604051631f57fed560e31b815260040160405180910390fd5b505b50505050565b6060600080823682610ad461010089018961258a565b9092509050610ae76006600083856125d0565b610af0916127c0565b60d01c9450610b03600c600683856125d0565b610b0c916127c0565b60d01c9350610b1e81600c81856125d0565b8080601f0160208091040260200160405190810160405280939291908181526020018383808284376000920182905250604080516101c081019091527fc03dfc11d8b10bf9cf703d558958c8c42777f785d998c62060d85a4f0ef6ea7f815294975095509293505060208084019250610b9a91508a018a6127ee565b6001600160a01b0316815260200188602001358152602001888060400190610bc2919061258a565b604051610bd09291906127b0565b6040519081900390208152602001610beb60608a018a61258a565b604051610bf99291906127b0565b60405180910390208152602001610c0f8961157a565b6001600160801b03168152602001610c2689611590565b6001600160801b031681526020018860a001358152602001610c47896115a5565b6001600160801b03168152602001610c5e896115b4565b6001600160801b03168152602001610c7960e08a018a61258a565b604051610c879291906127b0565b6040805191829003909120825265ffffffffffff80881660208401528616908201526001600160a01b0388166060909101526101c08120909150601960f81b600160f81b610cd3611373565b6040516001600160f81b031993841660208201529290911660218301526022820152604281018290526062016040516020818303038152906040529550505092959194509250565b6000818051906020012083604051602001610d40929190918252602082015260400190565b60405160208183030381529060405280519060200120925060ff60f81b858486896001600160a01b0316604051602001610d7b92919061280b565b60405160208183030381529060405280519060200120604051602001610dd394939291906001600160f81b031994909416845260609290921b6001600160601b03191660018401526015830152603582015260550190565b60408051601f1981840301815291905280516020909101209695505050505050565b80516020808301516040808501516060860151608087015160a088015160c08901519451600098610e2a98909796910161282d565b604051602081830303815290604052805190602001209050919050565b600081600881901b6001600160f81b03198216600160f81b03610e6d5760019250610ea9565b6001600160f81b03198216610e855760019250610ea9565b6001600160f81b031980831603610e9f5760019250610ea9565b5060009392505050565b828015610ebe57506001600160f81b03198116155b15610eca575050919050565b828015610ee457506001600160f81b03198116600160f81b145b15610e9f575050919050565b60405163610b592560e01b81526001600160a01b038d166004820152309063610b592590602401600060405180830381600087803b158015610f3157600080fd5b505af1158015610f45573d6000803e3d6000fd5b505060405163f08a032360e01b81526001600160a01b038f16600482015230925063f08a03239150602401600060405180830381600087803b158015610f8a57600080fd5b505af1158015610f9e573d6000803e3d6000fd5b50505050306001600160a01b031663540fb4f98c8c8c8c8c8c8c8c60405180606001604052807f00000000000000000000000000000000000000000000000000000000000000006001600160a01b031681526020018e8e8080602002602001604051908101604052809392919081815260200183836020028082843760009201919091525050509082525060ff8d166020909101526040516001600160e01b031960e08c901b16815261105c9998979695949392919060040161288b565b600060405180830381600087803b15801561107657600080fd5b505af115801561108a573d6000803e3d6000fd5b50505050505050505050505050505050565b336001600160a01b037f000000000000000000000000000000000000000000000000000000000000000016146110e557604051632039d3c960e01b815260040160405180910390fd5b6110f260208201826127ee565b600080546001600160a01b0319166001600160a01b039283161790557f00000000000000000000000000000000000000000000000000000000000000001661114060808301606084016127ee565b6001600160a01b03161461116757604051633007073760e01b815260040160405180910390fd5b6302b994c760e31b61117c608083018361258a565b61118b916004916000916125d0565b611194916125fa565b6001600160e01b031916146111bc57604051633007073760e01b815260040160405180910390fd5b3063b63e800d6111cf6020840184612900565b60408501356111e460808701606088016127ee565b6111f1608088018861258a565b61120160c08a0160a08b016127ee565b60008060006040518b63ffffffff1660e01b815260040161122b9a99989796959493929190612949565b600060405180830381600087803b15801561124557600080fd5b505af1158015611259573d6000803e3d6000fd5b50506000600080516020612be983398151915255506112759050565b60008061128860c0840160a085016127ee565b6001600160a01b031661129e60e085018561258a565b306040516020016112b193929190612a01565b60408051601f19818403018152908290526112cb9161266f565b6000604051808303816000865af19150503d8060008114611308576040519150601f19603f3d011682016040523d82523d6000602084013e61130d565b606091505b50915091508161131f57805160208201fd5b505050565b60006001820361133657506001919050565b6002820361134657506001919050565b6003820361135657506001919050565b6004820361136657506001919050565b506000919050565b919050565b604080517f47e79534a245952e8b16893a336b85a3d9ea9fa8c573f3d803afb92a794692186020820152469181019190915230606082015260009060800160405160208183030381529060405280519060200120905090565b60008060006060808660a001516001600160a01b03166355d559f4877f00000000000000000000000000000000000000000000000000000000000000006040518363ffffffff1660e01b8152600401611426929190612a22565b600060405180830381865afa158015611443573d6000803e3d6000fd5b505050506040513d6000823e601f3d908101601f1916820160405261146b9190810190612aaf565b8351602085012060408c01519298509296509294509192509060009061149490839085906115c9565b905061149f816118b8565b60208901516114ad816118b8565b6114b6816118c4565b80516000805b8281101561152e5760006114f28583815181106114db576114db61268b565b6020026020010151876118cd90919063ffffffff16565b5090508015611525578261150581612b49565b9350508d6040015183106115255760019b5050505050505050505061153b565b506001016114bc565b5060009950505050505050505b9250925092565b600060d08265ffffffffffff16901b60a08465ffffffffffff16901b8561156a57600061156d565b60015b60ff161717949350505050565b600061158a826080013560801c90565b92915050565b60006001600160801b0360808301351661158a565b600060c082013560801c61158a565b60006001600160801b0360c08301351661158a565b606060006115d8836041612b62565b8451909150836001600160401b038111156115f5576115f5611d65565b60405190808252806020026020018201604052801561161e578160200160208202803683370190505b5092508181101561164257604051638baa579f60e01b815260040160405180910390fd5b60005b848110156118ae576000806000806116758a86604102016020810151604082015160609092015160001a92909190565b9250925092508260ff1660000361180d57909250829060418110156116c3576040516338a245ff60e11b81526004810182905260006024820181905260448201526064015b60405180910390fd5b856116cf826020612b79565b11156116ff576040516338a245ff60e11b81526004810182905260006024820152604481018790526064016116ba565b6020818b018101519087908290611717908590612b79565b6117219190612b79565b1115611751576040516338a245ff60e11b81526004810183905260248101829052604481018890526064016116ba565b60606020838d01019050631626ba7e60e01b6001600160e01b031916866001600160a01b0316631626ba7e8f846040518363ffffffff1660e01b815260040161179b929190612b8c565b602060405180830381865afa1580156117b8573d6000803e3d6000fd5b505050506040513d601f19601f820116820180604052508101906117dc9190612ba5565b6001600160e01b03191614611806578060405163605d348960e01b81526004016116ba919061217b565b5050611873565b601e8360ff1611156118645761185d61184b8c6020527b19457468657265756d205369676e6564204d6573736167653a0a3332600052603c60042090565b611856600486612bcf565b84846118f0565b9350611873565b6118708b8484846118f0565b93505b838886815181106118865761188661268b565b6001600160a01b03909216602092830291909101909101525050600190920191506116459050565b5050509392505050565b6118c18161192e565b50565b6118c181611983565b6000806118e584846001600160a01b031660006119cc565b909590945092505050565b60006040518560005260ff85166020528360405282606052602060406080600060015afa5060006060523d6060185191508060405250949350505050565b8051600082528060051b82016020601f198185015b820183811161197b578051828201805182811161196257505050611943565b5b81860152830180518281116119635750840152611943565b505050915250565b60028151106118c1576020810160408201600183510160051b83015b81518351146119b357602083019250815183525b60208201915080820361199f57505081900360051c9052565b60008060001960018651600087870197505b81830160011c94508460051b8901518701905087811482841117611a1857808811611a0d5783850191506119de565b6001850192506119de565b84151597148716989290930190950295509350505050565b6001600160a01b03811681146118c157600080fd5b803561136e81611a30565b60008083601f840112611a6257600080fd5b5081356001600160401b03811115611a7957600080fd5b6020830191508360208260051b8501011115611a9457600080fd5b9250929050565b803560ff8116811461136e57600080fd5b60008060008060008060008060008060c08b8d031215611acb57600080fd5b611ad48b611a45565b995060208b01356001600160401b0380821115611af057600080fd5b611afc8e838f01611a50565b909b50995060408d0135915080821115611b1557600080fd5b611b218e838f01611a50565b909950975060608d0135915080821115611b3a57600080fd5b611b468e838f01611a50565b909750955060808d0135915080821115611b5f57600080fd5b50611b6c8d828e01611a50565b9094509250611b7f905060a08c01611a9b565b90509295989b9194979a5092959850565b60006101208284031215611ba357600080fd5b50919050565b600080600060608486031215611bbe57600080fd5b83356001600160401b03811115611bd457600080fd5b611be086828701611b90565b9660208601359650604090950135949350505050565b60008060008060608587031215611c0c57600080fd5b843593506020850135611c1e81611a30565b925060408501356001600160401b0380821115611c3a57600080fd5b818701915087601f830112611c4e57600080fd5b813581811115611c5d57600080fd5b886020828501011115611c6f57600080fd5b95989497505060200194505050565b60008060408385031215611c9157600080fd5b82356001600160401b03811115611ca757600080fd5b611cb385828601611b90565b9250506020830135611cc481611a30565b809150509250929050565b60005b83811015611cea578181015183820152602001611cd2565b50506000910152565b60008151808452611d0b816020860160208601611ccf565b601f01601f19169290920160200192915050565b608081526000611d326080830187611cf3565b65ffffffffffff8681166020850152851660408401528281036060840152611d5a8185611cf3565b979650505050505050565b634e487b7160e01b600052604160045260246000fd5b604080519081016001600160401b0381118282101715611d9d57611d9d611d65565b60405290565b60405161010081016001600160401b0381118282101715611d9d57611d9d611d65565b604051601f8201601f191681016001600160401b0381118282101715611dee57611dee611d65565b604052919050565b60006001600160401b03821115611e0f57611e0f611d65565b50601f01601f191660200190565b600082601f830112611e2e57600080fd5b8135611e41611e3c82611df6565b611dc6565b818152846020838601011115611e5657600080fd5b816020850160208301376000918101602001919091529392505050565b600080600080600060a08688031215611e8b57600080fd5b8535611e9681611a30565b94506020860135611ea681611a30565b935060408601356001600160401b0380821115611ec257600080fd5b611ece89838a01611e1d565b9450606088013593506080880135915080821115611eeb57600080fd5b50611ef888828901611e1d565b9150509295509295909350565b60006001600160401b03821115611f1e57611f1e611d65565b5060051b60200190565b600082601f830112611f3957600080fd5b81356020611f49611e3c83611f05565b8083825260208201915060208460051b870101935086841115611f6b57600080fd5b602086015b84811015611f90578035611f8381611a30565b8352918301918301611f70565b509695505050505050565b600082601f830112611fac57600080fd5b81356020611fbc611e3c83611f05565b82815260059290921b84018101918181019086841115611fdb57600080fd5b8286015b84811015611f905780356001600160401b0380821115611fff5760008081fd5b908801906040828b03601f19018113156120195760008081fd5b612021611d7b565b8784013561202e81611a30565b81529083013590828211156120435760008081fd5b6120518c8984870101611e1d565b818901528652505050918301918301611fdf565b60006020828403121561207757600080fd5b81356001600160401b038082111561208e57600080fd5b9083019061010082860312156120a357600080fd5b6120ab611da3565b6120b483611a45565b81526020830135828111156120c857600080fd5b6120d487828601611f28565b602083015250604083013560408201526120f060608401611a45565b606082015260808301358281111561210757600080fd5b61211387828601611e1d565b60808301525061212560a08401611a45565b60a082015260c08301358281111561213c57600080fd5b61214887828601611f9b565b60c08301525060e08301358281111561216057600080fd5b61216c87828601611e1d565b60e08301525095945050505050565b60208152600061218e6020830184611cf3565b9392505050565b6000602082840312156121a757600080fd5b5035919050565b60008060008060008060008060008060008060e08d8f0312156121d057600080fd5b6121d98d611a45565b9b506001600160401b0360208e013511156121f357600080fd5b6122038e60208f01358f01611a50565b909b5099506001600160401b0360408e0135111561222057600080fd5b6122308e60408f01358f01611a50565b90995097506001600160401b0360608e0135111561224d57600080fd5b61225d8e60608f01358f01611a50565b90975095506001600160401b0360808e0135111561227a57600080fd5b61228a8e60808f01358f01611a50565b90955093506001600160401b0360a08e013511156122a757600080fd5b6122b78e60a08f01358f01611a50565b90935091506122c860c08e01611a9b565b90509295989b509295989b509295989b565b6000602082840312156122ec57600080fd5b81356001600160401b0381111561230257600080fd5b8201610100818503121561218e57600080fd5b600082825180855260208086019550808260051b84010181860160005b8481101561237d57858303601f19018952815180516001600160a01b03168452840151604085850181905261236981860183611cf3565b9a86019a9450505090830190600101612332565b5090979650505050505050565b6000808335601e198436030181126123a157600080fd5b83016020810192503590506001600160401b038111156123c057600080fd5b803603821315611a9457600080fd5b81835281816020850137506000828201602090810191909152601f909101601f19169091010190565b60008383855260208086019550808560051b830101846000805b8881101561248657858403601f19018a52823536899003603e19018112612437578283fd5b88016040813561244681611a30565b6001600160a01b0316865261245d8288018361238a565b9250818888015261247182880184836123cf565b9c88019c965050509285019250600101612412565b509198975050505050505050565b60008151808452602080850194506020840160005b838110156124ce5781516001600160a01b0316875295820195908201906001016124a9565b509495945050505050565b60018060a01b03815116825260006020820151606060208501526125006060850182612494565b60409384015160ff16949093019390935250919050565b60a08152600061252a60a083018b612315565b828103602084015261253d818a8c6123f8565b9050828103604084015261255281888a6123f8565b905082810360608401526125678186886123f8565b9050828103608084015261257b81856124d9565b9b9a5050505050505050505050565b6000808335601e198436030181126125a157600080fd5b8301803591506001600160401b038211156125bb57600080fd5b602001915036819003821315611a9457600080fd5b600080858511156125e057600080fd5b838611156125ed57600080fd5b5050820193919092039150565b6001600160e01b031981358181169160048510156126225780818660040360031b1b83161692505b505092915050565b60208152600061218e6020830184612315565b6000835161264f818460208801611ccf565b60609390931b6001600160601b0319169190920190815260140192915050565b60008251612681818460208701611ccf565b9190910192915050565b634e487b7160e01b600052603260045260246000fd5b60006101206126c0846126b385611a45565b6001600160a01b03169052565b602083013560208501526126d7604084018461238a565b8260408701526126ea83870182846123cf565b925050506126fb606084018461238a565b858303606087015261270e8382846123cf565b925050506080830135608085015260a083013560a085015260c083013560c085015261273d60e084018461238a565b85830360e08701526127508382846123cf565b925050506101006127638185018561238a565b86840383880152611d5a8482846123cf565b60408152600061278860408301856126a1565b90508260208301529392505050565b6000602082840312156127a957600080fd5b5051919050565b8183823760009101908152919050565b6001600160d01b031981358181169160068510156126225760069490940360031b84901b1690921692915050565b60006020828403121561280057600080fd5b813561218e81611a30565b6000835161281d818460208801611ccf565b9190910191825250602001919050565b600060018060a01b03808a16835260e0602084015261284f60e084018a612494565b8860408501528188166060850152838103608085015261286f8188611cf3565b905081861660a085015283810360c085015261257b8186612315565b60a08152600061289f60a083018b8d6123f8565b82810360208401526128b2818a8c6123f8565b905082810360408401526128c781888a6123f8565b905082810360608401526128dc8186886123f8565b905082810360808401526128f081856124d9565b9c9b505050505050505050505050565b6000808335601e1984360301811261291757600080fd5b8301803591506001600160401b0382111561293157600080fd5b6020019150600581901b3603821315611a9457600080fd5b61010080825281018a9052600061012082018c825b8d81101561298f57813561297181611a30565b6001600160a01b03168352602092830192919091019060010161295e565b50508a60208401526129ac604084018b6001600160a01b03169052565b82810360608401526129bf81898b6123cf565b9150506129d760808301876001600160a01b03169052565b6001600160a01b03851660a08301528360c083015261257b60e08301846001600160a01b03169052565b8284823760609190911b6001600160601b0319169101908152601401919050565b604081526000612a3560408301856126a1565b905060018060a01b03831660208301529392505050565b600082601f830112612a5d57600080fd5b8151612a6b611e3c82611df6565b818152846020838601011115612a8057600080fd5b612a91826020830160208701611ccf565b949350505050565b805165ffffffffffff8116811461136e57600080fd5b60008060008060808587031215612ac557600080fd5b84516001600160401b0380821115612adc57600080fd5b612ae888838901612a4c565b9550612af660208801612a99565b9450612b0460408801612a99565b93506060870151915080821115612b1a57600080fd5b50612b2787828801612a4c565b91505092959194509250565b634e487b7160e01b600052601160045260246000fd5b600060018201612b5b57612b5b612b33565b5060010190565b808202811582820484141761158a5761158a612b33565b8082018082111561158a5761158a612b33565b828152604060208201526000612a916040830184611cf3565b600060208284031215612bb757600080fd5b81516001600160e01b03198116811461218e57600080fd5b60ff828116828216039081111561158a5761158a612b3356fe982e06ee6a56dfc0f1ac189a5d23506361ca0a3ce45a9c7b8d33d65d43746a24a26469706673582212205be760a720127d259c1ed1e59588908288b1910f8de47544d944f3c7ebbf807d64736f6c63430008190033","linkReferences":{}},"methodIdentifiers":{"REGISTRY()":"06433b1b","SUPPORTED_ENTRYPOINT()":"137e051e","accountId()":"9cfd7cff","addSafe7579(address,(address,bytes)[],(address,bytes)[],(address,bytes)[],(address,bytes)[],address[],uint8)":"d78343d9","domainSeparator()":"f698da25","getInitHash()":"3c9de1b8","getSafeOp((address,uint256,bytes,bytes,bytes32,uint256,bytes32,bytes,bytes),address)":"55d559f4","hash((address,address[],uint256,address,bytes,address,(address,bytes)[],bytes))":"928107f9","initSafe7579(address,(address,bytes)[],(address,bytes)[],(address,bytes)[],address[],uint8)":"15cca638","preValidationSetup(bytes32,address,bytes)":"4fff40e1","predictSafeAddress(address,address,bytes,bytes32,bytes)":"663c87d8","setupSafe((address,address[],uint256,address,bytes,address,(address,bytes)[],bytes))":"d9ed0e8f","supportsExecutionMode(bytes32)":"d03c7914","supportsModule(uint256)":"f2dc691d","validateUserOp((address,uint256,bytes,bytes,bytes32,uint256,bytes32,bytes,bytes),bytes32,uint256)":"19822f7c"},"id":145}